:020000040800F2
:10000000181000201D030008590300085B030008B6
:100010005D0300085F0300086103000800000000A2
:100020000000000000000000000000006303000862
:10003000650300080000000067030008690300086A
:100040006B0300086B0300086B0300086B030008D8
:100050006B0300086B0300086B0300086B030008C8
:100060006B0300086B0300086B0300086B030008B8
:100070006B0300086B0300086B0300086B030008A8
:100080006B0300086B0300086B0300086B03000898
:100090006B0300086B0300086B0300086B03000888
:1000A0006B0300086B0300086B0300086B03000878
:1000B0006B0300086B0300086B0300086B03000868
:1000C0006B0300086B0300086B0300086B03000858
:1000D0006B0300086B0300086B0300086B03000848
:1000E0006B0300086B0300086B0300086B03000838
:1000F0006B0300086B0300086B0300086B03000828
:100100006B0300086B0300086B0300086B03000817
:100110006B0300086B0300086B0300086B03000807
:100120006B0300086B0300086B0300086B030008F7
:100130006B0300086B0300086B0300086B030008E7
:100140006B0300086B0300086B0300086B030008D7
:100150006B0300086B0300086B0300086B030008C7
:100160006B0300086B0300086B0300086B030008B7
:100170006B0300086B0300086B030008000000001D
:100180006B0300086B03000800F002F800F0B6F8FB
:100190000AA090E8000C82448344AAF10107DA45E2
:1001A00001D100F0ABF8AFF2090EBAE80F0013F07E
:1001B000010F18BFFB1A43F00103184778360000FF
:1001C000983600000A444FF0000C10F8013B13F081
:1001D000070408BF10F8014B1D1108BF10F8015BA0
:1001E000641E05D010F8016B641E01F8016BF9D193
:1001F00013F0080F1EBF10F8014BAD1C0C1B09D1EA
:100200006D1E58BF01F801CBFAD505E014F8016B5B
:1002100001F8016B6D1EF9D59142D6D370470000ED
:100220000023002400250026103A28BF78C1FBD8FF
:10023000520728BF30C148BF0B6070476E2900F0DD
:100240006982702900F0AF83662903F086816529F1
:1002500003F08381672903F08081612903F07F81A6
:1002600003681B0A28BF41F08001692900F016824B
:10027000642900F01382752900F010826F2900F0C4
:100280003D83782900F07B83E92900F0D782E429B7
:1002900000F0D482F52900F0D182EF2900F03A83F2
:1002A000F82900F07A830368DB0928BF41F0800158
:1002B000632901F0A280732901F0A780E32901F0EE
:1002C000B280F32901F0B780002070471FB503F01A
:1002D0003FF99DE8030000F049F901F005F9040039
:1002E0000020002103F01EF9401C60600020002166
:1002F00003F002F9E0601FBD10B510BD01F0C7F8B2
:100300001146FFF7E3FF02F0F9F901F09FF903B49A
:10031000FFF7F2FF03BC01F0CFF9000016481749C0
:10032000174B99423CBF50F8042B41F8042BF8D3EB
:1003300014494FF000028B4238BF43F8042BFAD324
:10034000DFF84400016841F470010160BFF34F8F92
:10035000BFF36F8F0D480047FEE7FEE7FEE7FEE7BD
:10036000FEE7FEE7FEE7FEE7FEE7FEE7084809498D
:10037000094A0A4B7047000080390008000000203D
:10038000780900201810002088ED00E0890100089D
:10039000180A002018100020180C0020180C00204B
:1003A00070B5064600F0C6F8056806F10B0020F0AF
:1003B0000704B4429CBF002070BD2B466A68BAB1E6
:1003C0001068A04210D304F1080188423CBF506875
:1003D000586007D35168101941601168091B01600A
:1003E00058601460101D70BD13465268002AE7D192
:1003F0002146284600F0A6F80028DED170BD70B571
:100400000446051F00F096F80068002C14BF4468ED
:1004100070BD002C18BFAC423CBF20466468F8D3C6
:1004200001680A18AA4218BF456003D12A68054628
:100430001144016028684119A1421CBF6C6070BD65
:100440006168696021680844286070BD1CB50C466D
:10045000064B7B4469460090204600F074F9044640
:100460000020694600F082F920461CBD17030000F9
:1004700010B504780CB10A4603E0002010BDA34279
:10048000FCD012F8013B002BF9D1401CF1E740EA07
:100490000103024630B59B0710D14FF0013400E054
:1004A00008C208C91D1B9D4315EAC41FF8D013F0EC
:1004B000FF0102F8011B0DD01B0AF8E711F8013B00
:1004C000002B02F8013B05D011F8013B002B02F88C
:1004D000013BF3D130BD10B5431C02E010F8011B05
:1004E00071B18107FAD14FF0013202C88C1A8C43E6
:1004F00014EAC211F9D0C01A0A0603D0C01E10BDFA
:10050000C01A10BD0A0401D0801E10BD0902FCD023
:10051000401E10BD421E12F8013F002BFBD111F806
:10052000013B002B02F8013BF9D17047704770473F
:100530007047000000487047C009002070477047AE
:100540007047704738B504460A4600206946AFF345
:100550000080002808BF38BD02460099204600F000
:10056000F9FA012038BD012000F089BFF8B5AFF3DA
:100570000080054600200C46102000BF0646A81942
:10058000A0420DD9324669460020AFF30080070033
:1005900008BF00F074FF0098A04218BF0546C419B8
:1005A000FFF7C8FF05600746F01D20F00700461959
:1005B000284600F00AF8B44208BFF8BDA21B314635
:1005C0003868BDE8F84000F0C5BA00210160C0E914
:1005D000011070471020704770B5044685690068A7
:1005E000C10601D5302600E02026C00707D070BD27
:1005F000D4E9012130469047206A401C20626D1EDC
:10060000F6D570BD70B5044685690078C00707D17E
:1006100070BDD4E9012120209047206A401C20624F
:100620006D1EF6D570BD09684A0501D540B2704708
:10063000C905FCD500B2704709684A0501D5C0B2AA
:100640007047C905FCD580B2704770B50C460546A9
:10065000012A05D02878800600D5EA69002302E047
:10066000012305E05B1C934202D2E05C0028F9D133
:10067000A869E618C01AA861286A184428622846A2
:10068000FFF7AAFF04E0D5E9012114F8010B904718
:10069000B442F8D32846FFF7B5FF70BD2DE9F0410D
:1006A0000646002410687529314616A510D0FFF7BC
:1006B000BAFF002802DA404213A507E031688A0732
:1006C00001D512A502E0490704D511A5012401E0D6
:1006D000FFF7B2FF00210A2206F1240709E0B0FB70
:1006E000F2FCB0FBF2F302FB1C00303078541846E9
:1006F000491C0028F3D123462A463046BDE8F04184
:1007000000F087BA000000002D0000002B00000060
:100710002000000011680268006A530501D50870C6
:100720000AE0D30501D5088006E0130603D5C217F9
:10073000C1E9000200E008600120704701694A1C1D
:1007400002610878704700B58FB0CDE90131002112
:10075000059105497944CDE903101146684600F03A
:100760002DF90FB000BD0000E5FFFFFF0A6802F899
:10077000010B0A60704700002DE9FF5F15468A46AD
:100780000446DFF8AC80F8440027D8E900103E4664
:10079000CDE9001010E03AF816106A4602A800F001
:1007A0004EFE411C07D02178890603D5E26939182D
:1007B00091420DD80744761C2078800602D5E06966
:1007C000B84205DDAE42E6DB3AF816000028E2D179
:1007D000A069C01BA0612046FFF7FEFED8E900100B
:1007E000CDE90010002017E03AF818106A4602A878
:1007F00000F025FEB0F1FF3F81460BD000250DF142
:10080000080B05E0D4E901211BF8050090476D1C99
:100810004D45F7D308F10100B0428046E4DB206A81
:10082000384420622046FFF7EDFE00F003B80000D8
:10083000DA2D00003FBCBDE8C09F00002DE9F0416B
:100840008046D21D22F007020025D2E90002F529D8
:1008500015A614D0011E72F1000106DA0023D0EBB8
:10086000030063EB020211A608E0D8F800108B0722
:1008700001D50FA602E0490701D50EA601251146B4
:10088000002408F1240704E000F07EF930323A55E4
:10089000641C50EA0102F7D12B46324621464046FD
:1008A000BDE8F04100F0B5B9000000002D000000E7
:1008B0002B0000002000000030B4002100F12404CF
:1008C00008E002F00705D208303542EA4372DB083F
:1008D0006554491C52EA0305F3D10468002310A2B1
:1008E000250708D504F020040C4304D0C469012373
:1008F0000CA2641EC46130BC00F08BB910B5044674
:1009000021461068FFF798FE02462046BDE81040D9
:100910000023D1E7D21D22F00701D1E90023CBE764
:100920000000000030000000F0B40D460188090509
:1009300002D5214C7C4402E01F4C7C440E34002143
:1009400000F1240608E002F00F071209E75D42EA11
:1009500003721B097754491C52EA0307F3D102784A
:100960000023120704D5702D06D009B102231134DB
:100970002246F0BC00F04DB901231034F8E770B501
:1009800004460D4621461068FFF756FE02462946EA
:100990002046BDE870400023C6E7D21D22F00703C1
:1009A000D3E90023C0E70368126843F02003036023
:1009B0000823C3610023B7E7342C00002DE9F05F62
:1009C000894604464FF0000ADFF874B1FB44C0F8D2
:1009D00020A02046E1688847002874D0252806D04A
:1009E000D4E901219047206A401C2062F1E70026EB
:1009F0005F462046E16888472028054607DB312D01
:100A000005D2781910F8200C08B10643F1E7B007B9
:100A100001D526F00406C4F81CA00027C4F818A0CD
:100A20002A2D09D0284601F0ABFC38B304EB870827
:100A3000303DC8F8185019E059F8041B204604EB63
:100A400087029161E1688847012F054618D1E06966
:100A5000002820DA26F020061DE0D8F8180000EB68
:100A6000800005EB40003038C8F818002046E168E7
:100A70008847054601F084FC0028EED1012F0AD0FA
:100A80002E2D08D12046E16888477F1C0546022F9D
:100A900046F02006C4DBA069002803DA404246F095
:100AA0000106A061F00701D026F010066C2D0BD0D6
:100AB000682D09D04C2D39D06A2D35D0742D35D004
:100AC0007A2D33D016E038E0E1682F46204688477B
:100AD000B842054609D16C2F26D04FF48060E168FA
:100AE000064320468847054604E06C2F1AD04FF491
:100AF000807006430DB3A5F14100192802D82035B6
:100B000046F400664A462946204626604E46FFF7D0
:100B100095FB80B101280BD0F61D26F0070000F1EF
:100B2000080956E74020E4E78020D8E70020D6E710
:100B300006F104094DE7284652E7206A00F002B8A2
:100B4000C42B000030BCBDE8C09F000000487047C7
:100B5000B8090020034640688C46002818BF884228
:100B60003CBF03464068F8D318681844884207D051
:100B70000CF1030020F00700001D411A521A014633
:100B8000081D0A60FFF73BBC30B5B0F10A024FEA1E
:100B9000900E71F100034EEA817EB0EB0E0061EB26
:100BA00091014FEA101E4EEA017E10EB0E0041EB60
:100BB00011114FEA102E4EEA016E10EB0E0041EBC0
:100BC00011214FEA104E4EEA014E10EB0E0041EBA0
:100BD0001141401841F100014FEAD00040EA417054
:100BE0004FEAD10110EB80054FEA810444EA90748A
:100BF00044EB01046D1944EB0404521BA3414FF074
:100C0000000348BF0A3200D530BD401C41F100014D
:100C100030BD2DE9F0470D4699469246044600F155
:100C200024080168880604D5E06921F010012160DC
:100C300000E00120A84201DD471B00E00027A16978
:100C40007A1902EB0900081AA0612078C00602D4C4
:100C50002046FFF7C1FC002608E0D4E901211AF87C
:100C600006009047206A401C761C20624E45F4DB4B
:100C70002078C0060AD52046FFF7AEFC06E0D4E98E
:100C8000012130209047206A401C2062381EA7F1C5
:100C90000107F4DC07E0D4E9012118F805009047CA
:100CA000206A401C2062281EA5F10105F3DC2046C5
:100CB000FFF7A8FC2078000602D50220BDE8F087E7
:100CC0000120FBE770472DE9FF4F0C461E464FF011
:100CD000FF378BB0D2E90001DDF860800A908A46C8
:100CE000C1F30A5505B93D46002108464FF0000002
:100CF000BAF1000F00F4400005DA00EB80004FF479
:100D0000400101EA50004FEA9059B9F1010F00DDAE
:100D1000B9460A9850EA4A000ED044F61050A5F29F
:100D2000FF3545432F14B8F1000F1ED07542291E20
:100D30001EDDC9F100021CE0B8F1010F4FF0000008
:100D400001D0302103E0F24305E02154401CB042C1
:100D5000FBDB30460022002121540B99C1F80880AA
:100D6000C1E900200FB000F0BAB9BD1B6D1CDEE771
:100D70004A4600DA694206A800F0FAFB06AB93E89F
:100D8000070003AB83E8070050460A9900F0FBFC1C
:100D90008DE80700A0F500501F3800900398002D43
:100DA00009DD42F21F014A46084403A90390684640
:100DB00000F05AFF08E0A0F500504A461F3803A98A
:100DC0000390684600F064FF8DE807000004000C03
:100DD00003D04FF0FF30410800E01046B8F1000F9B
:100DE00003D00022009215461EE0751E05D4FFF7C1
:100DF000CBFE303262556D1EF9D5B3460122084351
:100E000002D000227F1C04E02078302801D100228B
:100E10007F1E002A099786D01DE0112D07DAFFF703
:100E2000B3FE303262556D1C50EA0102F5D1084321
:100E300002D00098C8B10EE00021681E05E0235CD6
:100E4000625C63542254401E491C8142F7DBAB466E
:100E5000A81B401E0990002004F80B000B98099A6B
:100E6000C0F80880C0E9002B7CE711264FF000088D
:100E700059E72DE9F04F88460446D21D22F00701BC
:100E800091B0D1E90001CDE90A0101F061FA024611
:100E90000B98C00F01D02D2007E02068810701D5F5
:100EA0002B2002E0202101EAC000032A099001D092
:100EB000072A05DB03464146204600F019FB0BE1FB
:100EC0002078800601D5E06900E00620B8F1650FC2
:100ED000814606D0B8F1660F18D0B8F1670F70D10F
:100EE00031E00020B9F1110F009001DB112301E086
:100EF00009F101030AAA01A90CA8FFF7E4FEDDE944
:100F00000C70002609F10105834647E001204B469D
:100F100000904FF000470AAA01A90CA8FFF7D3FEE2
:100F2000DDE90DB00C995D46002610B909F101000C
:100F30000D18B9EB050003D4C0F1FF3609F1010526
:100F4000A5EB09002BE0B9F1010F01DA4FF001091F
:100F50000020B9F1110F0090484601DD112300E097
:100F600003460AAA01A90CA8FFF7ADFEDDE90C7043
:100F70004D4600268346207800070AD4AB4500DAA8
:100F80005D4601A8012D04DD411911F8011C30292D
:100F900007D04F4502DA17F1040F04DA0120824628
:100FA0000FE06D1EEEE7002F02DCED1B3E4403E078
:100FB000781CA84200DD7D1CB81B00F1010A4FF02F
:100FC00000472078000703D4AA4501DB4FF0FF3A21
:100FD0000021B7F1004F0DF143088DF8431024D0E4
:100FE00002202B23002F01DA7F422D230A21021E2B
:100FF000A0F1010000DC5FB197FBF1FC97FBF1F27F
:1010000001FB1C7C17460CF1300C08F801CDEEE713
:10101000A8F1010003702188090501D5452100E0F0
:101020006521A0F1010800F8011C09980FA9A1EBA6
:101030000807FF1D00B10120411901EBEA70A16909
:101040003844081A401EA0612078C00602D4204609
:10105000FFF7C2FA099828B1D4E901219047206A24
:10106000401C20622078C00622D52046FFF7B4FA43
:101070001EE0002E04DBB34502DD01A8805D00E028
:101080003020D4E901219047206A401C2062761C60
:10109000AAF101005FEA000A0AD100F025FAC0684F
:1010A0000168405CD4E901219047206A401C20621D
:1010B000281EA5F10105DCDC07E0D4E9012118F8C0
:1010C000010B9047206A401C2062381EA7F10107DF
:1010D000F3DC2046FFF796FA032011B043E630BC5C
:1010E000BDE8C08F2DE9F04F04460D46D21D22F019
:1010F000070089B0D0E900974846394601F028F941
:101100000246F80F01D02D2307E02068810701D5A2
:101110002B2302E0202101EAC0038DF820300BB11F
:10112000012000E00020032A824601D0072A04DBC8
:101130002946204600F0DCF93FE12078800601D402
:101140000D2500E0E569C7F30A560D2D49DA0021A7
:101150004FEA175B08464FF00000002F00F44000F4
:1011600007DA00EB80004FF4400100EBD07001EA99
:1011700060008115012901DD4FF0FF3100224FEAA7
:10118000850CBCF1180F06D31346ACF118004FF0D4
:101190008052C24003E04FF4801323FA0CF30CF1A9
:1011A0000C0CBCF1200F04D3ACF1200C09FA0CF0AC
:1011B00001E007FA0CF000294FF0004801DD18B9F2
:1011C0000FE00ED140450CD319EB02095F4121B964
:1011D000404502D19F4329EA0209BBEB175F00D0CB
:1011E000761C2088000502D57B48784402E07A48C6
:1011F0007844193808AA302302F80A30037C0AF12F
:101200000101002E0AF1020A53546A4602DC4FF033
:10121000300101E04FF031014FF001088DF800106E
:1012200002D0A6F2FF3603E059EA470100D06B4E28
:10123000002D02DC2178090704D54FF002082E2189
:101240008DF80110C44600210BE0C7F303433F01B2
:10125000C35C491C6D1E02F80830052908F101081D
:1012600001DA002DF1DC00210CE000EB1973491CC0
:101270001B786D1E082902F808304FEA091908F199
:10128000010801DA002DF0DC21688B0602D516E09A
:10129000A8F10108E04505DD02EB080313F8013C65
:1012A000302BF5D0B8F1000F09DD02EB080313F87D
:1012B000013C2E2B03D1090701D4A8F10108002D10
:1012C00005DD3E2102F808106D1E08F10108407C82
:1012D000002E02F8080008F1010804DA2D207642F9
:1012E00002F8080002E02B2002F808000A214FF45F
:1012F0007A70864208F101080BDB96FBF0F330337D
:1013000002F8083096FBF0F308F1010800FB1366C1
:1013100001E0642E0CDB642096FBF0F3303302F81E
:10132000083096FBF0F308F1010800FB136601E0BA
:101330000A2E06DB96FBF1F0303002F8080008F1C7
:10134000010896FBF1F001FB1060303002F8080054
:10135000A16908F1010808EB050202EB0A00081A6E
:10136000A0612078C00602D42046FFF735F9216A33
:1013700008AE01EB0A00206204E0D4E9012116F86E
:10138000010B9047BAF1010AF7D22078C00602D5C6
:101390002046FFF721F96E4609E016F8010B3E28BA
:1013A0000FD0D4E901219047206A401C2062B8F197
:1013B0000108F2D22046FFF725F909B0032000F01A
:1013C0000FB8206A2844206203E0D4E901213020CC
:1013D00090476D1EEBD3F8E7CA23000002FCFFFF25
:1013E00030BCBDE8C08F10B5436913B1AFF30080C6
:1013F00001E0FFF72AF9012010BD127800F1240165
:101400000A7000224A700122EDE711684FF0FF32A6
:10141000E9E710B5436913B1AFF3008001E0FFF7CE
:10142000ABF9012010BD128800F124018284002252
:10143000C2840122EDE711684FF0FF32E9E770B591
:1014400016460C46054600F047F8036893F801017C
:10145000012806D0FF2C0FD8185D68B101202C7030
:1014600070BDD3F807013246214603F20713034447
:101470002846BDE8704018474FF0FF3070BD10B5EA
:1014800000F0F2F8BDE8104000F0E9B8704775468A
:10149000FFF75CFBAE4605006946534620F00700A7
:1014A000854618B020B5FEF761FFBDE820404FF03B
:1014B00000064FF000074FF000084FF0000B21F03E
:1014C0000701AC46ACE8C009ACE8C009ACE8C0090B
:1014D000ACE8C0098D46704710B500F005F8001D56
:1014E00010BD00BF4120000000487047D80900200F
:1014F0002DE9F0411F46044603260168072A01F43E
:10150000006004DB08B116A505E016A503E008B1EC
:1015100015A500E015A521F010002060A069C01EEF
:10152000A0610FB1401EA0612046FFF755F84FB1F2
:10153000D4E9012138469047206A401C2062C01C33
:10154000206206E0206AFAE7D4E9012115F8010BD0
:101550009047761EF8D22046FFF754F8BDE8F08198
:101560004E414E006E616E00494E4600696E660047
:101570002DE9F047814616468AB0334878440DC8B5
:101580008DE80D0030487844801C03AC0DC884E819
:101590000D0041F69B300844372190FBF1F290FB9F
:1015A000F1F5A5F1800501FB12041B3C02D5644254
:1015B000012000E00020DFF890A080460027FA44D8
:1015C000AAF1BE0A0DE0E00709D03246684607EBF3
:1015D00047010AEB810100F05BFB8DE80700641016
:1015E0007F1C002CEFD1184F7F44AC3F18E0E80778
:1015F00014D007EB04100DF1180A90E80E008AE8E9
:101600000E00C068F04201D198190890324606A930
:1016100003A800F03DFB03AB83E807006D10641CDA
:10162000002DE4D132466946B8F1000F03A802D07C
:1016300000F01AFB01E000F02BFBC9E90001C9F83A
:1016400008200AB0BDE8F087C820000010B50446A5
:10165000AFF300802046BDE81040FEF758BE0028DA
:1016600001D000F029B8704710B5012805D000213D
:1016700003A000F027F8012010BD09A1F8E7000041
:1016800053494752544D454D3A204F7574206F666B
:101690002068656170206D656D6F727900000000D3
:1016A0003A2048656170206D656D6F727920636FB7
:1016B000727275707465640001491820ABBEFEE754
:1016C0002600020070B505460C460A2000E06D1C9D
:1016D00000F052F835B128780028F8D102E0641CF7
:1016E00000F04AF814B120780028F8D1BDE8704025
:1016F0000A2000F041B800004FF0013C50F8042BE4
:1017000051F8043B9A4221D1A2EB0C03934313EA14
:10171000CC1317D150F8042B51F8043B9A4215D141
:10172000A2EB0C03934313EACC130BD150F8042B18
:1017300051F8043B9A4209D1A2EB0C03934313EAFC
:10174000CC13DBD04FF00000704700BFD01A01BAB5
:10175000B1FA81F101F0180122FA01F0CB40C1F198
:101760002001DBB2C0B2C01A2CFA01F3D11A9143A6
:1017700011EAC311E6D1704708B569468DF800003B
:101780000320ABBE08BD5FEA400C08BF91F0000F1C
:101790004FEA8C234FEAC12243EA51514FEA1C50D1
:1017A00018BF00F5F0404FEA300018BF41F000418B
:1017B0005FEA6C5C00F02980BCF1FF3F08BF40F09D
:1017C00080407047130C06BF12044FF0100C4FF00E
:1017D000000C130E04BF12020CF1080C130F04BF0F
:1017E00012010CF1040C930F04BF92000CF1020CD7
:1017F000D30F04BF52000CF1010C11464FF0000250
:10180000A0F11F00A0EB0C00704711F0004F08BFC3
:10181000704731F000413FF4D5AF0B0C06BF09040F
:101820004FF0100C4FF0000C0B0E04BF09020CF12E
:10183000080C0B0F04BF09010CF1040C8B0F04BF43
:1018400089000CF1020CCB0F04BF49000CF1010C14
:10185000CCF12003A0EB0C0022FA03F302FA0CF205
:1018600041EA030100F10100704720F07F4C80EA5B
:10187000030023F07F47ACEB070303F57C5300F034
:10188000004003F1FF032DE980494FEA154B09B4ED
:101890004FEA144325EA0B4E24EA03480FF20426CC
:1018A00006EB132749083E785FEA320203FB06671E
:1018B000C7F5000707FB06F64FEA54374FEAD6464E
:1018C00006F1020607FB066CCCF1005C4FEA1C47F0
:1018D0002CEA074C07FB06F40CFB06F504EB154657
:1018E0004FEA961634BF00204FF000404FEAD13740
:1018F00006FB07FC4FEA1C4C0CFB0BF7D21B03FB4F
:101900000CF761EB07010CFB0EF7B0EB074072EB35
:1019100017420CFB08F734BFA2EB0742B2EB0742B9
:1019200061EB17414FEA0C444FEA910706FB07FCB5
:101930004FEA1C4C0CFB0BF7B0EBC74072EB573275
:1019400003FB0CF734BFA2EBC742B2EBC74261EB1B
:1019500057310CFB0EF7B0EBC70072EB57720CFB64
:1019600008F734BFA2EBC702B2EBC70261EB5771B5
:10197000039F4FEA816141EA921104EBCC044FEAE4
:10198000D1374FEA826206FB07FC42EA90124FEA27
:1019900080604FEA1C4C0CFB0BF7D21B03FB0CF7CF
:1019A00061EB07010CFB0EF7B0EB074072EB17423F
:1019B0000CFB08F734BFA2EB0742B2EB074261EB26
:1019C00017414FEA8C554FEA910704EB9C2406FB24
:1019D00007FC4FEA1C4C0CFB0BF7B0EBC74072EB5B
:1019E000573203FB0CF734BFA2EBC742B2EBC7423E
:1019F00061EB57310CFB0EF7B0EBC70072EB57727F
:101A00000CFB08F734BFA2EBC702B2EBC70261EBD5
:101A1000577115EB4C254FEA816141EA92114FEA6B
:101A200082624FEAD13742EA901206FB07FC44F18A
:101A300000044FEA80604FEA1C4C0CFB0BF7D21BF2
:101A400003FB0CF761EB07010CFB0EF7B0EB074053
:101A500072EB17420CFB08F734BFA2EB0742B2EB64
:101A6000074261EB174115EB1C154FEA813141EA42
:101A700092414FEA823242EA90424FEA80304FEA86
:101A80000C7644F1000448EA03434EEA0B484FF059
:101A9000000EB2EB080C71EB030724BF6246394617
:101AA0004EEB0E0E4FF0000B0018524149414BEB2C
:101AB0000B0BB2EB080C71EB03077BF1000B24BF9F
:101AC000624639464EEB0E0E4FF0000B00185241A5
:101AD00049414BEB0B0BB2EB080C71EB03077BF1AD
:101AE000000B24BF624639464EEB0E0E51EA020748
:101AF00018BF46F0010616EB0E7655F1000254F1C0
:101B0000000103D5BDE88901BDE80088BDE8890171
:101B1000BDE80048B619524141EB0101A3F10103B0
:101B2000704780807F7E7D7C7B7A7978777676754A
:101B30007473727171706F6E6E6D6C6C6B6A6A69C2
:101B40006868676666656464636362616160605F5C
:101B50005F5E5E5D5D5C5C5B5B5A5A5959585857D5
:101B6000575656555555545453535252525151503D
:101B700050504F4F4F4E4E4D4D4D4C4C4C4B4B4B90
:101B80004A4A4A49494948484847474747464646D6
:101B90004545454444444443434343424242424111
:101BA0004141002B26D4770021D01CB54FEA3707DE
:101BB00003B44FF010004FF010014FF000000FBCC5
:101BC000BDE810400BF1010BBBF1010F08BF5FEA4C
:101BD000170722BF12F1010211F101014FF000417C
:101BE00043F1000300F0004043EA00007047F9D3DE
:101BF0005708DAE746EA064613F1400F4FEA164661
:101C00001FDD13F1200FDFBF16430A4600212033EA
:101C10005B42C8D0C3F1200746EA064602FA07F73E
:101C20004FEA164646EA0706C3F1200722FA03F2F6
:101C300001FA07F721FA03F14FF0000342EA070225
:101C4000B1E746EA020646EA06464FEA164646EA83
:101C50000106BCBF46EA0646360C4FF000034FF0C3
:101C600000024FF000019EE72DE9C048934630B4D2
:101C700091E8380007C831EA400C48BF34EA430C09
:101C800003D5FFF7F2FDFFF78CFFF0BCBDE800883D
:101C90002DE9C048934630B491E8380007C810F0E9
:101CA000804F08BF13F0804F03D100F005F8FFF715
:101CB00078FFF0BCBDE8008820F07F4780EA030091
:101CC00023F07F4C07EB0C03A3F57C5300F000409E
:101CD000A3F1FE0392F0000F00F0B38095F0000F27
:101CE00000F077802DE901494FEA11404FEA144690
:101CF00021EA004800FB06FC24EA064708FB06F63A
:101D000007FB08F800FB07F718EB06484CEB164CEE
:101D10004FEA124B18EB07484FEA15464CEB1740B9
:101D200022EA0B4E0BFB06FC25EA06470EFB06F6E5
:101D300007FB0EFE0BFB07F71EEB064E4CEB164C9B
:101D40004FF000061EEB074E4CEB174B18EB0B0841
:101D500040F1000018EB0E0B58EB000840F10000BA
:101D60008F1A4FF000013CBFC943661B14BFB5EB8F
:101D7000040C00213CBFC943F61B4FEA17444EEA4E
:101D80008E0E27EA04454FEA1C4704FB07622CEA43
:101D9000074C05FB07F70CFB05F604FB0CFC16EBE8
:101DA000074642EB174216EB0C4642EB1C421BEB7C
:101DB000060658EB0202414146EA9E0601D5BDE8FF
:101DC0000189B619524141EB0101A3F10103BDE8BC
:101DD00001894FEA14454FEA114724EA054621EAF2
:101DE000074C05FB07F406FB07F70CFB06F105FBA8
:101DF0000CFC11EB074144EB17444FEA124711EB7F
:101E00000C4144EB1C4422EA074C05FB07F206FB9D
:101E100007F70CFB06F605FB0CFC16EB074642EB3E
:101E2000174216EB0C4642EB1C456A1854F10001B0
:101E300048BF7047B619524141EB0101A3F10103BC
:101E4000704795F0000F37D04FEA11424FEA144720
:101E500021EA024624EA074C02FB07F106FB07F7DA
:101E60000CFB06F402FB0CFC14EB074441EB17419E
:101E70004FEA154714EB0C4441EB1C4125EA074C93
:101E800002FB07F506FB07F70CFB06F602FB0CFC52
:101E900016EB074645EB174516EB0C4645EB1C4287
:101EA000121951F1000148BF7047B619524141EB78
:101EB0000101A3F1010370474FEA14454FEA1147AE
:101EC00024EA054621EA074C05FB07F106FB07F764
:101ED0000CFB06F24FF0000605FB0CFC12EB074270
:101EE00041EB174112EB0C4251EB1C4148BF7047CC
:101EF000921841EB0101A3F10103704703484069C7
:101F000020F48070014948617047000000100048CB
:101F10000348406940F480700149486170470000FF
:101F2000001000482348C06C40F012002149C864EA
:101F30006FF03000204908600846006840F010004B
:101F400008601D480830006820F030001A49083148
:101F500008600846006840F030000860081F00680C
:101F600020F00400091F086013480C30006820F0BE
:101F7000300011490C3108606FF440300F4908609F
:101F80000846006840F4803008600846806820F405
:101F9000403088600846806840F4403088600846D9
:101FA000406820F4807048600846C06820F44030E3
:101FB000C86070470010024000040048001000484C
:101FC0000348006820F004000149086070470000E1
:101FD000140400480348006840F004000149086008
:101FE00070470000140400485E49096821F00701A9
:101FF0005C4A11601146096841F0020111605A49BA
:10200000096841F48071584A116000BF5649096857
:1020100001F480610029F9D010205349496821F06A
:10202000F851514A51601146496841EA00615160D6
:102030001146096821F08071116000BF4A490968A2
:1020400001F00071B1F1007FF8D04749C96821F073
:102050000301454AD1601146C96841F00201D160CF
:102060001146C96821F4FE4141F4A051D1601146E6
:10207000C96821F0700141F01001D1601146C968B2
:1020800021F0C061D1601146C96841F08071D16012
:102090001146096841F08071116000BF324909683A
:1020A00001F000710029F9D02F49896821F003015E
:1020B0002D4A91601146896841F00301916000BF8B
:1020C0002949896801F00C010C29F9D12649896850
:1020D00021F0F001244A91601146896821F4E06101
:1020E00091601146896821F4605191601146096838
:1020F00021F08061116000BF1B49096801F0806117
:10210000B1F1806FF8D01849096921F4FE41164AEF
:1021100011611146096941F4C05111611146096903
:1021200041F4003111611146096941F480311161B6
:102130001146096841F08061116000BF0A490968D1
:1021400001F080610029F9D007498831096821F43C
:102150004001054AC2F888101146096E41F4001189
:102160001166704700200240001002401A48C06CFF
:1021700040F008001849C8641848006820F47050FE
:10218000164908600846006840F42050086013486B
:102190002030006840F0EE601049203108600F48A0
:1021A0000830006840F470500C4908310860081D80
:1021B000006820F47050091D08600846006840F46B
:1021C000A05008600548001D006820F06000034929
:1021D000091D08607047000000100240000C004814
:1021E00000B50D48806D40F400300B4988650A4801
:1021F0008830006820F00C00C1F888000846D0F84C
:10220000880040F00400C1F88800FFF7AFFF0348E2
:1022100000F010F800BD0000001002400044004033
:10222000642242430723B2FBF3F100BF4A1E111E92
:10223000FCD17047016821F001010160016821F0C3
:1022400010210160016821F400410160416821F41E
:102250004051416042F28D01C160016841F00C01C2
:1022600001601E4988421BD1016841F020010160D4
:10227000016821F040010160016821F01001016056
:10228000016821F080010160016821F48071016022
:10229000016821F040010160016821F00101016045
:1022A0000F49884209D1016A41F0400101620D499C
:1022B000096841F0C0010B4A1160016841F0010159
:1022C000016000BFC16901F400110029FAD000BF0C
:1022D000C16901F480010029FAD07047004C004028
:1022E0000044004008380140014600BFC86900F0C2
:1022F00020000028FAD0888CC0B270470146C86917
:1023000000F0200010B1888CC0B270470020FCE7BC
:10231000F0B504460E46174600250CE000BFE06904
:1023200000F080000028FAD0705D20854FF4967090
:10233000FFF776FF6D1CBD42F0D300BFE06900F0EF
:1023400040000028FAD0E06920F04000E061F0BDD4
:1023500003B401984100009850EAC12018BF04203E
:102360004A0D18BF40F0010040F2FF72B2EB515F1E
:1023700008BF40F00200012808BF052002B07047E6
:1023800030380A2801D201207047002070470146EA
:10239000002200200AE001EB40131B7823B101EB7F
:1023A00040131B78022B00D1521C401C0228F2DB88
:1023B000022A01D1012070470020FCE770B50346D6
:1023C0000C4600BF1D1B002D01DB2E4600E06E42B7
:1023D000B1B222B14FF47A754D43A8B202E0C825DC
:1023E0004D43A8B270BD000038B500200090002415
:1023F00016A001F05BF801F039F801F01BF800902D
:1024000001219DF8000001F01DF811E01DA001F070
:102410004DF89DF800101CA001F02EF801F026F8F0
:1024200001F008F8009001219DF8000001F00AF881
:1024300020A1684600F044F80028E7D01FA16846B4
:1024400000F03EF800B10124204638BD446F2079E9
:102450006F75207769736820746F20736B697020C3
:10246000746F20746865206E65787420696E73746B
:1024700072756374696F6E3F20285979206F7220DE
:102480004E6E293A00000000496E76616C69642046
:10249000696E707574202825632920706C656173DE
:1024A0006520656E746572205979206F72204E6EBA
:1024B0003A00000059794E6E000000005979000082
:1024C00070B504460D4629462046FDF7D1FF08B9F0
:1024D000002070BD0120FCE742F21071484300214A
:1024E00000E0491C8142FCD37047000010B5002475
:1024F000FFF77AFF044624B903A000F0D7FF00BF1E
:10250000FEE7204610BD000045786974696E6720BB
:102510007468652070726F6772616D0070B50546F2
:102520000C4616465EB92B462A460C48616800F0F8
:10253000A3FF204600F0CEF80020207001E000202C
:1025400060602146284600F04EFE0020A060E0605A
:1025500060612061A076A083A07770BD9C370008E1
:1025600070B505460E460CE005EB441000780128D6
:1025700000D02EB105EB441132462046FFF7CEFFC6
:10258000641C022CF0DB70BD014619B903480068D9
:1025900080B270470248006880B2FAE72404004025
:1025A0002408004008B50246104600F00BF88DF8EC
:1025B0000000104600F00AF88DF80100BDF8001088
:1025C000084608BD014601F0E0007047014601F0F1
:1025D0001F0070477CB50025002600200190009068
:1025E00020A000F063FF00F041FF00F023FF019006
:1025F0002AE029A101A8FFF763FF40B101219DF85E
:10260000040000F01FFF00F031FF30467CBD9DF854
:1026100004007F2808D1AC4213DD641E00219DF820
:10262000040000F00FFF0CE0022C00DB10E09DF82E
:1026300004000DF80400641C00219DF8040000F063
:1026400001FF00F0F7FE01909DF804000D28D0D1A5
:1026500000BF684600F0EAFC064610A000F026FF26
:102660003046D3E7456E746572206120636F6D6DEF
:10267000616E6420736574206F7220274363272086
:10268000746F20636F6E74696E756520612072656A
:10269000636970653A00000058780000000000008F
:1026A0000B48C06C40F001000949C8644FF09040ED
:1026B000006800204FF0904108600846006840F034
:1026C0000A0008600846006A40F01100086270477E
:1026D000001002404168052902DB0021416002E050
:1026E0004168491C4160704701B59DF8010005280B
:1026F00001DC012008BD0020FCE70000FFF774FCAE
:10270000FFF710FCFFF76CFDFFF7CAFF00F052FE69
:1027100000F0B8FD0A4800F070FD00F043F80EE04C
:102720000024FFF7F5FBFFF755FF0446FFF7E6FB34
:102730002CB1FFF74FFC00F051F9FFF741FCEFE738
:10274000780900202DE9F05F07460C4616469846AA
:10275000F5B23846FFF718FF8246424629464846FA
:10276000FFF72CFE834637B90B4850F825004FF091
:102770008041486305E0084850F825004FF080414B
:10278000886394F801906570A676A4F818A0A4F860
:102790001CB0A08B00F002B86009002030BCBDE87E
:1027A000C09F000010B512A000F080FE11A000F044
:1027B0007DFE1BA000F07AFE25A000F077FE31A080
:1027C00000F074FE35A000F071FE40A000F06EFE37
:1027D0004BA000F06BFE59A000F068FE66A000F070
:1027E00065FE6E4800F062FE6DA000F05FFE10BD59
:1027F00000000000456E74657220636F6D6D616E40
:10280000647320746F20636F6E74726F6C206D6FD1
:10281000746F7220657865637574696F6E0000006F
:102820002020202D2D546865206669727374206CF9
:10283000657474657220636F6E74726F6C7320744C
:10284000686520666972737420736572766F000024
:102850002020202D2D546865207365636F6E6420E1
:102860006C657474657220636F6E74726F6C732024
:10287000746865207365636F6E6420736572766F2C
:10288000000000002020202D2D417661696C6162DE
:102890006C65206C6574746572733A00202020208A
:1028A00020202D2D4C206F72206C3A205475726EB2
:1028B0002074686520736572766F206C656674207D
:1028C000696620706F737369626C65002020202038
:1028D00020202D2D52206F7220723A205475726E76
:1028E0002074686520736572766F207269676874FA
:1028F00020696620706F737369626C650000000068
:102900002020202020202D2D43206F7220633A208C
:10291000436F6E74696E756520657865637574695B
:102920006F6E206F66206120726563697065206F2D
:102930006E2074686520736572766F0020202020F9
:1029400020202D2D50206F7220703A205061757319
:102950006520657865637574696F6E206F662061A8
:1029600020726563697065206F6E207468652073DE
:102970006572766F000000002020202020202D2D81
:102980004E206F72206E3A204E6F206F70206F6E57
:102990002074686520736572766F0000EC3700085C
:1029A0004578616D706C653A20456E7465722027BC
:1029B00043632720746F20626567696E20726563C8
:1029C00069706520657865637574696F6E206F6ED8
:1029D000206561636820736572766F002DE9F041B0
:1029E00088B0FAA000F062FDF9A000F05FFD0027BA
:1029F0000026002500200790DBE2022F0FD0022DD9
:102A00000DD0012D01D1012F09D0012D03D1F648A0
:102A100000F090FC18B9F448FFF7B9FC00B1C9E226
:102A20000024C2E2F04800EB44100078012874D181
:102A300000F0F8FC0790EDA107A8FFF741FD88B171
:102A400000F014FD01219DF81C0000F0FBFC214664
:102A5000E7A000F011FD0220E34901EB44110870EA
:102A60006D1CA5E2E04901EB4411496801EBC1028C
:102A700002EB0111E94A02EB0111DB4A02EB4412BD
:102A8000926811F82200FFF78DFD06909DF818005E
:102A9000402872D004DC002870D020286FD104E0D8
:102AA00080286DD0A028F9D15CE10698FFF71CFEC4
:102AB000A0B3CD4800EB4410807F80B9204600F0E1
:102AC00049FC9DF81920C84800EB44110123204619
:102AD000FFF738FE0120C44901EB44118877C24852
:102AE00000EB4410807F012878D1BF49204600F0D8
:102AF000ACFB002872D0204600F040FC0020BA4910
:102B000001EB44118877B84800EB44108068401C02
:102B1000B54901EB4411886060E045E2FFE7ABA0F6
:102B200000F0C4FC9DF8190000F0010008B131224A
:102B300000E030229DF8190000F0020008B13120B9
:102B400000E030209DF8191001F0040109B1312195
:102B500000E030219DF8193003F008030BB1312358
:102B600000E03023CDE90131CDE903029DF81900E1
:102B700000F0100028B1312004E030E0B0E1B8E10D
:102B80006BE0302000909DF8190000F0200008B1A3
:102B9000312000E0302003469DF8190000F040008D
:102BA00008B1312000E0302002469DF8190000F005
:102BB000800008B1312000E030200146984800F044
:102BC0005BFCFFF793FC064646B1874800EB4410D8
:102BD0008068401C844901EB44118860E2E182482E
:102BE00000EB4410807FD8B99DF819004FF47A713A
:102BF00010FB01F07C4901EB4411888301207A49E4
:102C000001EB44118877204600F0A4FB2046FFF733
:102C1000BBFC8046744800EB4410A0F8188000BF4D
:102C2000714800EB4410807F012815D16E49204681
:102C300000F00BFB80B1204600F0A0FB00206A49A9
:102C400001EB44118877684800EB44108068401C11
:102C5000654901EB44118860A4E1634800EB44102E
:102C60000069012860D159A000F020FC9DF81900EE
:102C700000F0010008B1312200E030229DF8190077
:102C800000F0020008B1312100E030219DF8190068
:102C900000F0040008B1312000E030209DF8193028
:102CA00003F008030BB1312300E03023CDE90130FC
:102CB000CDE903129DF8190000F0100008B1312091
:102CC00000E0302000909DF8190000F0200008B1CD
:102CD000312000E0302003469DF8190000F040004C
:102CE00008B1312000E0302002469DF8190000F0C4
:102CF000800008B1312000E030200146494800F052
:102D0000BBFBFFF7F3FB06465EB3374800EB44100E
:102D10008068401C344901EB44118860002032492E
:102D200001EB441108611CE02F4800EB441080685F
:102D3000401C2D4901EB4411886001202A4901EB18
:102D400044110861284800EB44108068264901EBD3
:102D5000441148619DF81900401E234901EB4411BC
:102D6000C8601FE1204800EB4410006901286ED0C4
:102D700016A000F09BFB9DF8190000F0010008B1BF
:102D8000312200E030229DF8190000F0020008B165
:102D9000312100E030219DF8190000F0040008B155
:102DA000312000E030209DF8193003F008030BB10A
:102DB000312300E03023CDE90130CDE903129DF845
:102DC000190000F0100078B331202FE0000000005F
:102DD00050726F63657373696E67207265636970A3
:102DE0006573202E2E2E0000780900205070000000
:102DF00050617573696E67207265636970652065DF
:102E00007865637574696F6E206F6E207365727676
:102E10006F202564202E2E2E0000000000000020D0
:102E200060360008A4360008FFE7302000909DF8C7
:102E3000190000F0200008B1312000E030200346E6
:102E40009DF8190000F0400010B1312001E020E0B1
:102E5000302002469DF8190000F0800008B13120B2
:102E600000E0302001465B4800F006FBFFF73EFB28
:102E7000064616B3584800EB44108068401C56497B
:102E800001EB441188600020534901EB44110861B3
:102E900025E0514800EB4410C06800280EDA0020FD
:102EA0004D4901EB441108614B4800EB4410806828
:102EB000401C494901EB4411886010E0464800EB92
:102EC00044104069444901EB44118860424800EBDA
:102ED0004410C068401E404901EB4411C86061E0E5
:102EE0007F1C3D4800EB441100222046FFF716FBF3
:102EF00058E09DF8180000F0010008B1312100E011
:102F000030219DF8180000F0020008B1312200E0E5
:102F100030229DF8180000F0040008B1312000E0D4
:102F200030209DF8183003F008030BB1312300E086
:102F30003023CDE90130CDE903219DF8180000F0E0
:102F4000100008B1312000E0302000909DF81800FA
:102F500000F0200008B1312000E0302003469DF849
:102F6000180000F0400008B1312000E03020024697
:102F70009DF8180000F0800008B1312000E03020FA
:102F8000014616A000F078FAFFF7B0FA064646B1FF
:102F9000114800EB44108068401C0F4901EB4411BC
:102FA000886000BF00BF00BF641C022CFFF63AAD72
:102FB00000BF22E500BF00210748FFF7D1FA022D2C
:102FC00002D113A000F072FA00F0EAF908B0BDE8EF
:102FD000F0810000A436000878090020496E76616F
:102FE0006C69642072656369706520636F6D6D61E3
:102FF0006E6420656E636F756E74657265642025FE
:1030000063256325632563256325632563256300A5
:1030100052656369706520657865637574696F6E64
:1030200020636F6D706C6574656400002DE9F05F5E
:10303000054600260027B046B146B34600249BE073
:10304000285D62281DD00EDC4E2858D006DC4228B0
:1030500016D0432826D04C287CD130E0502850D0C0
:10306000522877D154E06E284AD004DC63281AD065
:103070006C286FD124E0702844D072286AD148E0CF
:1030800000BF484800EB441101222046FFF746FAF2
:103090004FF47A7B0120434901EB4411087001276A
:1030A000814667E000BF01203E4901EB44110870F2
:1030B00000203C4901EB4411887701275AE000BF0A
:1030C000384800EB44104078401E1FFA80FA35481B
:1030D00000EB4410407850B1324800EB441100231B
:1030E00052462046FFF72EFB8346012606E02EA01F
:1030F00000F0DCF921462D4800F0BEF93AE000BFAF
:1031000038E000BF0020274901EB4411087031E08E
:1031100000BF244800EB4410407800F1010A214828
:1031200000EB4410407805280BD01E4800EB4411FA
:10313000002352462046FFF705FB8346012608E0A0
:1031400008E019A000F0B2F952462146184800F0F4
:1031500093F90FE0B8F1000F0BD113A000F0A6F91E
:10316000294614A000F088F94FF001080027B9465D
:10317000002600BF00BF641C022CFFF661AF16B929
:10318000B9F1000F0AD0FEF7B9FEFEF723FF58464B
:10319000FFF7A2F9FEF714FFFEF7BAFE384600F07B
:1031A0001FB800007809002000000000F436000875
:1031B00048370008496E76616C696420636F6D6DF5
:1031C000616E64207365743A20272573272C207064
:1031D0006C656173652074727920616761696E0046
:1031E00030BCBDE8C09F70B504460D4601230022E7
:1031F00029462046FFF7A6FA70BD014622E00022CC
:1032000001EB40135A7001EB40135A6001EB40137D
:103210009A6001EB40131A6101EB4013DA6001EB95
:1032200040135A6101EB40131A7001EB40131A83EB
:1032300001EB40139A7601EB40139A8301EB4013A4
:103240009A77401C0228DADB70472DE9F0410446EA
:103250000D462046FFF798F9804605EB4410068B93
:1032600005EB4410878BA8EB0600002801DB014624
:1032700000E04142B94202DD0120BDE8F0810020BA
:10328000FBE700002848806D40F002002649886571
:103290000846806D40F0040088654FF4FA502349D9
:1032A000086022481438006840F001001F491439B2
:1032B00008601E480838006800201C49083908606A
:1032C0001A481038006840F00100184910390860A9
:1032D00016480838006840F00100144908390860B1
:1032E0004FF4FA501249086011481438006840F051
:1032F00001000F49143908600D48083800680020A3
:103300000B49083908600A481038006840F001008D
:1033100007491039086006480838006840F0010085
:103320000349083908607047001002402804004033
:103330002808004001460022002006E001EB40136F
:103340001B780BB9012202E0401C0228F6DB00BF0B
:103350001046704730B90749096841F00101054A34
:10336000116005E00449096841F00101024A116059
:1033700070470000000400400008004028B90649DA
:1033800009680021044A116004E004490968002129
:10339000024A11607047000000040040000800402D
:1033A00000B5002303E01846FFF7E8FF5B1C022B83
:1033B000F9DB00BD1948806D40F0010017498865B0
:1033C0004FF4FA50010688620006806940F203312A
:1033D00088434FF0804188610846806946F668015D
:1033E0000843C90688610846006840F0800008600C
:1033F0000846006A40F011000862C820C862084808
:10340000006848630648006888630846406940F0E1
:103410000100486101200860704700000010024070
:103420006009002010B50248FEF768FF10BD0000DB
:103430000044004010B50248FEF756FF10BD0000E2
:103440000044004038B505460C4600200090009529
:10345000012269460348FEF75BFF14B102A000F0A9
:1034600025F838BD004400400000000010B50021E0
:103470003E20FFF7E7FF10BD0FB400B5ADF2D47DDD
:103480000DF2DC70CDF8D0076846DDF8D027DDF806
:10349000D817FCF7DBFF0020CDF8D007684600F016
:1034A00005F80DF2D47D5DF814FB00002DE9F04124
:1034B00005462846FDF70FF8861C3046FCF770FFDE
:1034C000044629462046FCF7E2FF09A12046FDF705
:1034D00021F82046FCF7FFFF07463A4621460548FB
:1034E000FEF716FF2046FCF78AFFBDE8F0810000DA
:1034F0000D0A00000044004010B500290AD00878E9
:10350000002807D005487844FEF7F6F8002801D0D7
:10351000002010BD0248784410BD00004E0300009A
:103520004603000010B500290AD00878002807D00B
:1035300005487844FEF7E0F8002801D0002010BDCF
:103540000248784410BD00003E030000360300002E
:103550004FF04070E1EE100A7047FDF78ABCFDF7AE
:10356000C1BD000000000000000000003031323317
:1035700034353637383941424344454640305800A7
:1035800030313233343536373839616263646566D9
:103590004030780004000008000000000000000235
:1035A000000100001030313233343536373839619C
:1035B0006263646566787000303132333435363793
:1035C000383941424344454658500000024000000B
:1035D000000000A00000000005400000000000C83E
:1035E000000000000C4000000000409C00000000B3
:1035F000194000000020BCBE000000003440000064
:10360000BFC91B8E00000004B5400000504BCFD056
:103610006607E2CF010000006C4100003E8251AA23
:10362000DFEEA73401000000D9420000DCB5A0E2C3
:103630003A301F97FFFFFFFFB4450000FD25A0C8EB
:10364000E9A3C14FFFFFFFFFFF3F00000000008024
:1036500000000000FF3F00000000008000000000AC
:103660004552524F523A2043757272656E7420690A
:103670006E737472756374696F6E20706172616DC0
:1036800065746572206F7574206F6620626F756E49
:1036900064732025632563256325632563256325DE
:1036A000632563004552524F523A2043757272654A
:1036B0006E7420696E737472756374696F6E2070B6
:1036C0006172616D6574657220696E6469636174AD
:1036D0006573206E6573746564206C6F6F70732002
:1036E000256325632563256325632563256325639A
:1036F0000000000043616E6E6F74206D6F76652070
:103700006D6F746F7220256420616E79206D6F7209
:1037100065206C656674776172642C206974206919
:103720007320616C726561647920617420746865CE
:10373000206D6178206C65667468616E6420706FBE
:10374000736974696F6E000043616E6E6F74206DF3
:103750006F7665206D6F746F72202564206D6F72B7
:1037600065207269676874776172642C20697420BF
:10377000697320616C72656164792061742074687A
:1037800065206D617820726967687468616E642075
:10379000706F736974696F6E000000005265636931
:1037A000706520256420636F6D706C65746520669C
:1037B0006F7220736572766F2025642C207265739A
:1037C000657474696E6720736572766F2025642056
:1037D000746F207374617274696E6720706F73699F
:1037E00074696F6E202E2E2E0000000020202020F5
:1037F00020202D2D42206F7220623A204265676999
:103800006E20657865637574696F6E206F662061E0
:1038100020726563697065206F6E2074686520731F
:103820006572766F20696D6D6564696174656C7928
:103830000000000080390008000000207809000026
:10384000C4010008EC39000878090020A006000037
:10385000200200081C00000043000000F8FFFFFFEA
:103860000C0000000E0000000F0000002E00000001
:103870001001000043000000F8FFFFFF004040403F
:103880004040404040404141414141404040404033
:1038900040404040404040404040404040050202DF
:1038A000020202020202020202020202022020209E
:1038B00020202020202020020202020202029090FA
:1038C00090909090101010101010101010101010F8
:1038D000101010101010101002020202020288884C
:1038E0008888888808080808080808080808080858
:1038F0000808080808080808020202024000000040
:1039000000000000000000000000000000000000B7
:1039100000000000000000000000000000000000A7
:103920000000000000000000000000000000000097
:103930000000000000000000000000000000000087
:103940000000000000000000000000000000000077
:103950000000000000000000000000000000000067
:103960000000000000000000000000000000000057
:103970000000000000000000000000000000000047
:1039800032203225290832233280322132245AA0B3
:103990001832225A402029082910290C9A5F04293C
:1039A0003001FF01453220322132223223322402FB
:1039B000FF25017C32253220322102FF5F01843253
:1039C0002532C102FF210188322232815A21083278
:1039D000255AA00441291801FF01FF01FE320532DA
:0C39E00007320A320D32103213000000D2
:040000050800018965
:00000001FF
